:0400000010EF00F00D
:10002000706BC56ACD6A226A0F0E216E050E206EB6
:10003000606B616B2050626F0A0E625DD8A025EF85
:1000400000F0626F612B1CEF00F0706B716B215040
:10005000726F0A0E725DD8A032EF00F0726F712BD2
:1000600029EF00F02050215CD8B44AEF00F0D8A06E
:1000700043EF00F03CEF00F0CD6A020E226ECD841B
:10008000CD9210EF00F0CD6A010E226ECD82CD949C
:0C00900010EF00F0CD6A226A10EF00F0C3
:020000040030CA
:0A000000F8FFFFFF9FFFFFFFFFFF67
:00000001FF
