:0400000010EF00F00D
:10002000706BC56ABD6A226AFF0E216E010E206EDA
:10003000606B616B2050626F0A0E625DD8A025EF85
:1000400000F0626F612B1CEF00F0706B716B215040
:10005000726F0A0E725DD8A032EF00F0726F712BD2
:1000600029EF00F02050216438EF00F03EEF00F05F
:10007000205021604AEF00F044EF00F0020E226EA3
:10008000BD84BD9210EF00F0010E226EBD82BD94C2
:0E00900010EF00F0226ABD92BD9410EF00F058
:020000040030CA
:0A000000F8FFFFFF9FFFFFFFFFFF67
:00000001FF
